:020000040800F2
:1000000078060020DD2B0008D12A0008D32A00083A
:10001000D52A0008D72A0008D92A000800000000C5
:10002000000000000000000000000000DB2A0008C3
:10003000DD2A000800000000DF2A0008E12A00088D
:10004000112C0008152C0008192C00081D2C000884
:10005000212C0008252C0008292C00082D2C000834
:10006000312C0008352C0008392C0008E52A00083E
:100070003D2C0008412C0008452C0008492C0008A4
:10008000EB2A00084D2C0008512C0008552C0008C4
:10009000592C00085D2C0008612C0008652C000814
:1000A000692C00086D2C0008712C0008752C0008C4
:1000B000792C00087D2C0008F12A0008F72A000896
:1000C000812C0008852C0008892C00088D2C000844
:1000D000912C0008952C0008992C00089D2C0008F4
:1000E000A12C0008A52C0008A92C0008F8B50400D4
:1000F0001BD004F13C05697821B900202870204606
:1001000000F02DFE24216970206802685208520018
:10011000026001F0B8F901466068DFF8F42090420F
:1001200005D2DFF8F030994205D20120F2BDDFF8A8
:10013000E8008142F9D32068DFF8E0304668B1FB7F
:10014000F3F3B60943EA861646602668376A6068A4
:10015000904206D34FF4967043434FF47A70B3FB4A
:10016000F0F35B1CBF0943EA87133362491E23681F
:10017000DE696768974206D27F0000F043F80429E1
:1001800013D2042111E0A06820B907EB470700F063
:1001900039F805E01920474300F034F841F4804174
:1001A00008050CBF012141F40041DFF8740006404E
:1001B0000E43DE6122681368E169206A23F0C00300
:1001C0000B43034313602268DFF8580093682169EA
:1001D0000340E0680B43034393602168CA68A36946
:1001E0006069120A034343EA0222CA602068016878
:1001F00041F00101016000206860202169702063E6
:10020000A870F2BDB1FBF7F1491CC1F30B017047B7
:10021000A186010080841E0000093D0040420F00BD
:100220000030FFFF007CFFFF026842F00102026025
:1002300070473068016841F480710160704741681F
:1002400041F4006141607047F8B502685468C66ABD
:1002500000F13C03002599785F78102918BF4029E8
:1002600063D191695569EF0705D4B6F52A0F18BF18
:10027000B6F12A4F29D0EE0710D5A7050ED5C16AD1
:10028000B1F52A0F08BF012204D0C16AB1F12A4F8B
:1002900001D10822C262BDE8F24057E22E0715D50F
:1002A000A70513D59968C9B21161426B002A04BF32
:1002B000816B002909D0916A002902BF826B916A83
:1002C000002902D00068FFF7BAFFF1BDAB0704D5E3
:1002D000A60502D5BDE8F24089E2490712D5526869
:1002E0001105F2D42A0606D5610504D56A0702D4A1
:1002F000BDE8F240ADE06907E7D5A205E5D5BDE868
:10030000F24027E151680A05DFD4690606D5620587
:1003100004D5690702D4BDE8F24058E16907D4D595
:10032000A2052AD5BDE8F240A4E1596801B9956952
:1003300051698E0722D5A60520D5596801B1956966
:100340005C78002104F02804282C11D1546824F48E
:10035000806454606A0758BF01212A0654BFC268EE
:10036000826900241C7092B2BDE8F84001F0B7B871
:100370006FF00201516100201870F1BDCD0604D567
:10038000A60502D5BDE8F2400EE3212F18BF292FA4
:100390002BD10D061BD5660519D54D0717D45C78F2
:1003A000418D00294ED0416A0D78156100F0CBF8DF
:1003B000418D002908BF292C44D100F044F82121A7
:1003C000016328225A70BDE8F24001F089B849075C
:1003D00038D5A30536D5418D002933D0416A0B7835
:1003E0001361416A4A1C426229E04D061BD566052D
:1003F00019D54D0717D45C78418D19B31169426A3C
:100400001170416A4D1C4562418D4A1E4285418DE5
:10041000002908BF2A2C15D100F015F8222101630C
:1004200028225A7059E349070CD5A3050AD5418DF6
:1004300041B11169426A1170416A4B1C4362418D9E
:100440004A1E4285F1BD01684A6822F480624A6012
:10045000704738B500F13D0213785478C56A018DB4
:10046000002908BF212B2BD1082D1EBF202DDFF81E
:100470009C178D420BD001684B6823F4E0634B60FE
:1004800011210163002353702021117014E000F04A
:10049000EAF80B6843F400730B600021016320232A
:1004A00013705178402905D100235370BDE83240C4
:1004B00001F017B800215170BDE8324001F012B8C8
:1004C000212B03D0402C08BF222B3BD1418D11B9E9
:1004D00000F0C3F831BD517840292DD100F1480317
:1004E000996889B900685968012905D11A68D2B29A
:1004F00002619868801C05E019680904090E016111
:100500009868401C986031BD9968012907D11A6824
:100510000068D2B202619968491C996031BD99683E
:1005200002290FD11378222B03D10068FFF782FE36
:1005300031BD1278212A05D1416A03680A781A610F
:1005400000F001F831BD416A4A1C4262418D4A1EE9
:1005500042857047C36A00F13D021178212935D1E7
:10056000418D39B1416A03680A781A61416A4A1CAF
:100570004262E7E0082B1EBF202BDFF890168B426B
:100580000BD001684B6823F4E0634B6011210163D9
:10059000002353702021117016E001684B6823F48A
:1005A000E0634B6001680B6843F400730B6000214B
:1005B0000163202313705178402903D10023537025
:1005C00000F08FBF0021517000F08CBF704700F128
:1005D0003D021178222900D0704710B5418D0429C1
:1005E0000FD301680A69416A0A70426A531C436268
:1005F000418D4A1E4285418D03292DD100F02DF8F1
:1006000010BDC36A022B27D0012918BF002923D1AE
:1006100001680B6823F480630B6000F024F80B6919
:10062000416A0B70436A5C1C44622024418D4B1E5E
:10063000438514705178402906D100235370036319
:10064000BDE8104000F04FBF00215170122202633C
:10065000BDE8104000F048BF10BD0068416821F4BB
:1006600080614160704701684B6823F4E0634B6030
:1006700001687047C16A428D042A05D101684A6841
:1006800022F480624A6056E0428D032A0ED102684D
:100690005368042923F4806318BF022953604AD0A9
:1006A00001680A6822F480620A6044E0428D022AEE
:1006B00041D1012918BF102904D101680A6822F428
:1006C00080620CE0042918BF022904D101680A687D
:1006D00042F4806203E001680A6842F400720A6032
:1006E00001680A69416A0A70426A531C4362418D7B
:1006F0004A1E428503681969426A1170416A4B1C9F
:100700004362418D4A1E428501684A6822F4407264
:100710004A6000F13D0120220A704B78402B04D141
:1007200000224A70026300F0DEBE00224A701221ED
:10073000016300F0D9BE01680A69416A0A70426A21
:10074000531C4362418D4A1E4285704700F13D01B2
:1007500000F144024B78402B0DD10168D06820B9DC
:10076000126802F0FE020A617047106840F0010052
:10077000C0B2086170470369B3F5804F20D10368A8
:100780000978212904D1126802F0FE021A6104E0FE
:10079000116841F00101C9B21961426B002A04BF1E
:1007A000816B002922D0916A002902BF826B916A75
:1007B00000291BD00068416841F400614160704726
:1007C000D16839B912681204D20D02F0060242F063
:1007D000F00209E0D168012908D112681204D20D93
:1007E00002F0060242F0F10200680261704778B53B
:1007F00000F13D014B78C26A046B0978222940F070
:10080000B480016D002908BF402B00F0AF80016D5E
:10081000002904BF0169B1F5404F0CD100220092BC
:1008200000F0BCF80099136843F480731360016D05
:10083000491C016571BD418D11B90022009226E06D
:10084000418DDFF8C833012939D19A4213D100F024
:100850009FF8026851680B0506D5116821F4806184
:1008600011600022009277E0002300935469009405
:10087000936900930DE0082A18BF202A03D0122C98
:100880000DD1012A10D000F083F80021009100F072
:1008900085F80099136843F40073136062E0042A3A
:1008A0001CBF022A102A04D001680A6822F4806260
:1008B00003E001680A6842F480620A604AE0448DFD
:1008C000022C31D1042A1CBF022A102A11D001683F
:1008D0000C6844F400640C600021009104686569B0
:1008E0000095A66900960099256825F48065256025
:1008F00008E000F046F80091046865690095A46975
:100900000094009901684C6825052BD59A4218BFC0
:10091000012A04D0082A1CBF102A202A22D14A68A2
:1009200042F480524A601DE001680C6844F480641F
:100930000C6001684C6825050CD59A4218BF012A45
:1009400004D0082A1CBF102A202A03D14A6842F486
:1009500080524A60002100910268536900939269B5
:10096000009200990022026571BD0021009101688A
:1009700000F001F871BD4A69009289690091009800
:10098000704701680C6844F480640C600021704773
:1009900001680A6822F480620A607047026853693D
:1009A0000093946900947047F8B5044604F13D053E
:1009B0002E7800F011F90020009020684169009124
:1009C000FFF732FC009800F078F8216848680205CB
:1009D00026D5222E18BF2A2E0FF235270FD1A06B55
:1009E00000F05DF8A06B00F0CFFE012818D0A06BDE
:1009F0004763A06B00F0C3FD90B1A06B0EE0606B8D
:100A000000F04DF8606B00F0BFFE012808D0606B6D
:100A10004763606B00F0B3FD10B1606B416B8847BA
:100A2000608D88B1206841694A0701D500F02DF832
:100A3000206841694A0601D500F027F8608D18B199
:100A4000206C40F004002064206C08B1204641E096
:100A50002A2E05D1206328212970204600F097FE18
:100A60002878282808D1DFF8A411E16200F02BF8DB
:100A7000BDE8F24000F08CBE206B222818BF222E69
:100A800002D100F020F828E0F1BD0069616A087029
:100A9000606A421C6262608D411E61857047026817
:100AA00053686385608D18B1206C40F004002064A9
:100AB000486820F40060486070472068016821F4AD
:100AC00080610160704700202063202129706870D8
:100AD00020467047BDE8F24003E0BDE8F24000F078
:100AE00056BE38B5044604F13D05287869781029CA
:100AF00008BF222804D121680A6822F400620A6033
:100B000000F02801282903D10020206329700AE081
:100B1000226851680A0503D460281CBF2020287071
:100B2000002121636970206841680A0523D5416866
:100B300021F400614160606B0FF2D50190F8212033
:100B4000012A09D04163606B00F019FD002825D00F
:100B500000F04FF8606B0BE0A06B4163A06B00F0FE
:100B60000EFDD8B1206800F02DF800F042F8A06B1F
:100B7000416B884712E02A78602A0AD12021297027
:100B80000022226400F01EF800F02CF800F001FEB4
:100B900004E000F017F8204600F0FCFD2878216CF6
:100BA0004A070DD528280BD100F016F80021DFF8F0
:100BB0005C00E0622163202028706970204620E0FC
:100BC00031BD000041694A0605D50069616A0870B7
:100BD000606A421C626270472068416821F4E061EB
:100BE000416070472068016849084900016020465B
:100BF000704720680168490849000160202028707A
:100C00007047BDE8324000F0C3BD00000000FFFFA8
:100C100038B5406A00F13D0100230A78446BA362B5
:100C2000846BA362002403681D6825F480651D6041
:100C300000234385436B5C63836B5C6303681C68C0
:100C4000640864001C600B78602B08D120220A70B5
:100C500000234B700364BDE8324000F09ABD02F0FF
:100C60002802282A0ED10268136843F0010313609A
:100C700028230268146844F480641460002202632C
:100C80000B7003E020220A7000244C70BDE8324053
:100C900000F080BDDFF8500381B0016841F0010130
:100CA0000160026802F0010200920099426842F07D
:100CB00080524260406800F0805000900098DFF859
:100CC0002C03016821F0E06141F00071016001B086
:100CD000704778B585B000F0E1F82568DFF810635B
:100CE000B54233D1DFF80003DFF80853016841F45F
:100CF000007101600323026802F4007200F028F81A
:100D00000E2200F0C6F800990192029301A9DFF8C3
:100D1000E80200F041FDDFF8E402286000218020B5
:100D2000E8606960A9604FF480604FF48071686189
:100D300029614FF400502021E861A961284600F0A4
:100D4000F1FB08B101F05CF825626C6206B070BD81
:100D500000920099026842F004020260704778B580
:100D600085B000F09BF82568DFF89462B54240D169
:100D70009D4D286840F0080028601222296801F083
:100D8000080100914FF4407100989E480191029231
:100D90000321049100F060F89448016841F0E0619B
:100DA00041F00201016010226868974940F4001088
:100DB00068606868954D00F4001000900098296004
:100DC0000020A860802128616861A861E8616A60EC
:100DD000E960284600F0A6FB08B101F011F8656350
:100DE0006C62002200211F2001F036F81F2001F064
:100DF00050F806B070BD30B585B000F04FF82468EB
:100E0000844DAC4223D178487E4C416841F4804106
:100E10004160416801F48041009100F082F84FF494
:100E20002041006800F00800009002220098019123
:100E3000029203210491204600F00EF84FF4804006
:100E40000021019002910391204600F005F805B0C1
:100E500030BD01910292049201A900F09DBC30B511
:100E600085B000F01BF824686B4DAC420FD15E4892
:100E7000016841F400610160026802F40062FFF75A
:100E800067FF4FF4007100F004F800F041F805B07E
:100E900030BD006800F0040000907047044601A8CF
:100EA000102101F021B818B585B0FFF7F7FF2468CD
:100EB000B4F1804F2AD14C48416841F001014160B2
:100EC000416801F001010091FFF743FF036803F05F
:100ED0000403009300F025F84FF40041006800F08F
:100EE0000800009000F014F8082000210190029101
:100EF000039101A9434800F04FFC3C48016821F4EC
:100F0000407141F0E06141F48071016006B010BDB4
:100F100000220098384801910292039201A900F042
:100F20003BBC0099026842F008020260704781B041
:100F300000683A49884209D13548026842F0020205
:100F40000260006800F002000090009801B0704755
:100F500000683349884200D0704780B52C48FFF7BD
:100F6000F9FE0022FFF795FF002100981E2000F0F7
:100F700073FFBDE802401E2000F08BBF18B585B09E
:100F8000FFF78CFF2068244C1749A0420FD1086856
:100F900040F0040008600222096801F00401009199
:100FA0004FF4807100981448FFF753FF19E01B4A73
:100FB000904216D1086840F00800086002220968D3
:100FC00001F008010091102100980E48FFF741FF41
:100FD0000648016821F4406141F0E06141F400619C
:100FE000016006B010BD000018100240040001406E
:100FF000002401407C01002000080140080002405C
:1010000000540040000C01406C000240C001002070
:101010001C10024000380040002C01400004004039
:10102000000800402DE9F843040016D02078DFF8CE
:101030006C64C10713D5706800F00C00042807D059
:10104000706800F00C00082840D17068C1033DD5DD
:101050003068810303D56068002800F0F4802078B0
:10106000DFF84874810719D5706810F00C0F07D0AD
:10107000706800F00C00082860D17068C1035DD46E
:101080003068810703D52069012840F0DC80316891
:10109000606921F0F80141EAC00131602178080758
:1010A00070D5A069DFF80814002865D001220A6015
:1010B00000F01EFF0546706A810700F1C68000F04F
:1010C00017FF401B0228F6D9032035E16068B0F510
:1010D000803F04D1306840F48030306014E008B9BB
:1010E00030680AE0B0F5A02F306806D140F48020C7
:1010F0003060316841F4803105E020F480303060A8
:10110000316821F480213160606858B100F0F0FE50
:10111000054630688103A2D400F0EAFE401B652832
:10112000F7D3D1E700F0E4FE05463068810396D599
:1011300000F0DEFE401B6528F7D3C5E7206970B1DB
:101140000121396000F0D4FE05463068810700F1C6
:10115000B68000F0CDFE401B0228F6D9B4E7386017
:1011600000F0C6FE05463168880797D500F0C0FE3E
:10117000401B0228F7D9A7E7086000F0B9FE054632
:10118000706A810770D500F0B3FE401B0228F7D9C2
:101190009AE708B9306A09E00528306A06D140F0BC
:1011A00004003062306A40F0010005E04008400071
:1011B0003062306A20F00400306241F28938E06821
:1011C00068B100F095FE8146306A810700F18480A5
:1011D00000F08EFEA0EB09004045F5D374E700F067
:1011E00087FE8146306A810776D500F081FEA0EB4C
:1011F00009004045F6D367E700F07AFE401B02285D
:101200007BD961E700F074FE001B022840F28F805A
:101210005AE700F093F804463068810140F18B8072
:1012200000F066FE001B0228F6D94DE701280AD01F
:101230007068226A00F48031914202BF00F470109D
:10124000616A884277D0012076E0DFF854020168B5
:10125000C9084FF47A72B1FBF2F2009200BF009815
:10126000411E00280091F9D12078410739D5F06955
:101270000025C10009D4F06940F08050F0610125DB
:10128000F06900F0805000900098DFF82882D8F8CC
:101290000000C1051BD4D8F8000040F48070C8F8E5
:1012A000000000F025FE8146D8F80000C1050ED4EC
:1012B00000F01EFEA0EB09006528F5D304E73068B6
:1012C000616920F0F80040EAC1003060E6E6E068BD
:1012D00001287FF45EAF65E71DB1F06920F0805012
:1012E000F061E06938B3716801F00C0108299DD004
:1012F00002288ED100F022F80546306881013FF5C2
:101300007BAF206AB0F5803F05D17168A06821F4F9
:101310000031014371607268206A616A22F47412BC
:1013200002430A437260012000F009F80446306865
:1013300081017FF567AF0020BDE8F28300203866A9
:1013400000F0D6BD2DE9F0410400884672D05A4E17
:1013500000F077F802D200F06FF86BD120684F4DA3
:10136000810712D5400703D5696841F4E0616960DF
:101370002078010703D5686840F4605068606968A8
:10138000A06821F0F001014369602178C80749D5C0
:101390006068012802D129688A0303E002282968CD
:1013A00002D18A0102D445E08A0743D569688908D9
:1013B00040EA8100686000F09BFD0746686861684C
:1013C00000F00C00B0EB810F2CD000F091FDC01BA1
:1013D00041F289318842F1D3032021E0207841078E
:1013E00005D56A68E06822F4E06202436A60217809
:1013F000080706D56968206921F4605141EAC001F7
:10140000696000F023F86A682C49254BC2F3031287
:10141000895CC84018602448006800F06FFD002017
:10142000BDE8F081306800F007008045D6D200F0BA
:1014300003F8D3D00120F3E73168C90848EAC101B5
:101440003160306800F00700404570471C4915487E
:101450000A6802F00C03082B00D0704710B500BFDB
:101460001AA4C2F38343D203E35C08D50968584346
:101470001AA3C1F340415A5CB0FBF2F010BD18460C
:101480001049484310BD06480D4A006813680E49CC
:10149000C3F30222FFE7895CC84070470010024096
:1014A0000C00002000127A000800002000004242D8
:1014B000800442420070004000200240C02A000820
:1014C0000410024000093D00082C00080203040536
:1014D000060708090A0B0C0D0E0F101001027047C9
:1014E0007047704770477047704730B4002513E06D
:1014F00050F8042BD30744BFA9F101039A18091F20
:10150000042942F8045BFAD213468C0744BF1580C5
:101510009B1CC90748BF1D7050F8041B0029E7D168
:1015200030BC704730B508B9012030BD0468DFF821
:1015300034120919142200F13803B1FBF2F29200BF
:101540009A600222DFF82012596080F82120256875
:10155000416882686FF30D150D43C1681543026938
:101560000D434169154382690D43C16915430D431C
:10157000256000241C6000F04CF8002030BD38B518
:1015800090F821200024022A00F1340103D0042025
:10159000486001243BE00268136823F00E031360E7
:1015A0000268DFF8C83115686D086D0015600268C3
:1015B0009A4208BF012222D0DFF8B4319A4208BF14
:1015C00010221CD0DFF8AC319A4208BF4FF4807271
:1015D00015D0DFF8A4319A4208BF4FF480520ED0E4
:1015E000DFF898319A4208BF4FF4803207D0DFF815
:1015F00090319A420CBF4FF480124FF08072DFF8A6
:1016000084311A6000F005F8096801B18847204666
:1016100032BD012280F8212080F8204070472DE95A
:10162000F84F00F1280204275169554BD1F800E02A
:10163000056854492E68D2F818A0504CDFF838815C
:10164000DFF83091DFF828B1DFF820C107FA0AF798
:101650001EEA070F2DD077072BD52E68B60603D4C8
:101660002E6826F004062E600568654508BF042331
:1016700018D05D4508BF402314D04D4508BF4FF436
:1016800080630FD0454508BF4FF480430AD0A54280
:1016900008BF4FF4802305D09D420CBF4FF4800358
:1016A0004FF080630B605168002958D0BDE8F44FBB
:1016B0000847022707FA0AF71EEA070F32D0B707D2
:1016C00030D52E68B60606D42E6826F00A062E609F
:1016D000012580F821500568654508BF022318D010
:1016E0005D4508BF202314D04D4508BF4FF400735B
:1016F0000FD0454508BF4FF400530AD0A54208BF9C
:101700004FF4003305D09D420CBF4FF400134FF04F
:1017100000730B60002180F820101168F9B1BDE85A
:10172000F44F0847082101FA0AF11EEA010F16D00A
:10173000310714D52B6823F00E032B600124916927
:1017400053698C405C600121116180F821100021F7
:1017500080F82010916811B1BDE8F44F0847BDE84A
:10176000F18F0000F8FFFDBF0000024008000240BA
:101770001C00024030000240440002405800024079
:101780006C0002400400024090F82100704770474E
:1017900070477047704700002DE9F8470027BE46A4
:1017A0005F4A604B4FF00F0882460BE0D66830402E
:1017B000D06006E094604C68A402F7D5D068064378
:1017C000D6607F1C0E6836FA07F000F0A380012077
:1017D00000FA07F52E40AE42F3D1486858B301280D
:1017E0001AD002281FD0032833D0112817D012286E
:1017F0001DD04D4CA0421CBF4C4CA0421BD04C4CA9
:10180000A0421CBF4B4CA04215D04B4CA0421CBF69
:101810004A4CA0420FD01EE0D1F80CE01BE0C86893
:1018200000F1040E17E0C86800F1080E13E0C86864
:1018300000F10C0E0FE0886810B94FF0040E0AE0BA
:1018400001284FF0080E14BFCAF81450CAF81050FF
:1018500001E04FF0000EB6F5807F03D250464FEA0C
:10186000870C05E0A7F108040AF104004FEA840C94
:10187000046808FA0CF5AC430EFA0CF52C4304602E
:101880004868C0009DD51868DFF8B4C040F001007A
:1018900018601C6804F001040094BC000098B808AB
:1018A0005CF8205004F00C0408FA04F925EA090950
:1018B000244DAA4508BF00250ED0234DAA4508BFD8
:1018C000012509D0214DAA4508BF022504D0204D8D
:1018D000AA450CBF0325042505FA04F444EA0904CB
:1018E0004CF82040F0434C68E40314684CBF344388
:1018F000044014604C68A40354684CBF3443044053
:1019000054604C689568E4024CBF46EA050400EA5E
:1019100005044FE7BDE8F18702B90904016170478A
:1019200000040140181002400000111000001210C5
:1019300000002110000022100000311000003210C1
:101940000800014000080140000C01400010014067
:1019500000140140F0B58BB000F0F0FA00F0DEF8B2
:1019600000F0C7F9DFF85004DFF85044016841F097
:10197000010101600022006800F0010000900021D8
:1019800000980B2000F068FA0B2000F082FA002289
:101990000021102000F060FA102000F07AFADFF841
:1019A0002004DFF82014A065E165002020662621D0
:1019B00061664FF48040A0660021E166216761679F
:1019C000A16704F15800FEF791FB02A8242104F15D
:1019D000AC0500F089FA00210FF230402022D0E956
:1019E0000067696029614FF08040012102910491F4
:1019F00028600F21069140F285300121E8600891AE
:101A000000200F21CDE90067A861039005900790A1
:101A100009900A91AA6002A9284600F0F9FA00216B
:101A2000009101912846694600F0DEFD0FF2EC308E
:101A300000F06CF804F59676E3483060472141F2F7
:101A400087300022F0607160B2603261B26130466E
:101A500000F093FA0021009101913046694600F0B0
:101A6000C3FD00210291002204910392069202A973
:101A7000304600F0B7FB00F0D9F80FF2983000F0D4
:101A800045F8D24828641121696444F61F61E9646D
:101A900000208021A8642865A96504F1EC0528468A
:101AA00000F081FA20210091002201926946284627
:101AB00000F09AFD7021029143F6982203920021D2
:101AC00004910022069202A9284600F0AFFB2846A6
:101AD000FFF754FA00F059F8BD4820604FF48271C6
:101AE00001206061616020200221E06121610A2003
:101AF00000224FF40071E062A260E260A161226204
:101B00006262A262204600F0B9FDFEE71C21D0E926
:101B10000023CDE9002302A800F0E6B900B593B098
:101B200009A8282100F0E0F904A8142100F0DCF94C
:101B30006846102100F0D8F94FF4803100220A9154
:101B40000B921191012009900D9002224FF4E011A7
:101B50001092129109A8FFF765FA022105910F2052
:101B60004FF48061049000220791069208920221AE
:101B700004A8FFF7E7FB02214FF4404200910292D4
:101B8000684600F0BBFD13B000BD3EB568460021BD
:101B90000022002380E80E004FF480708D4C2173EA
:101BA0002175A0604FF40021E16109218A4D626036
:101BB00021612560204600F015FE01210091019170
:101BC000204606210291694600F086FE022100F0BF
:101BD00022F8032100F01FF801210091042200F0F7
:101BE00020F802210091052200F01BF8032100914A
:101BF000062200F016F801210091072200F011F8EA
:101C000002210091082200F00CF803210091092222
:101C100000F007F837BD009101912046694600F0B9
:101C20005BBE01926946204600F056BED0B596B024
:101C300011A8142100F058F972A40AA8D4E9006789
:101C4000CDE900671C2100F04FF902A8202100F027
:101C50004BF9624C624820603B2142F2D77000226F
:101C6000E0606160A26022616261A261204600F0D2
:101C700077F9204600F097F90821204600F0A8F9EE
:101C80000621119160221292002113910F221592C8
:101C900011A9204600F048FB002100910191204647
:101CA000694600F0A1FC702000210A900B910022EF
:101CB0000D910F910C920E9210920AA9204600F0FD
:101CC000B5FA2068816921F00801816100204FF494
:101CD000005102900390049005900690079109909E
:101CE00002A9204600F09FFC2046FFF747F916B0F6
:101CF000D0BD30B585B06846102100F0F5F8394800
:101D0000394D046844F0100404600168374C01F058
:101D1000100104910499026842F0200202600368F5
:101D200003F0200304930499026842F00402026065
:101D3000036803F0040304930499026842F0080264
:101D400002600022006800F0080004904FF4005187
:101D500004982846FFF7E0FD01224FF48051204609
:101D6000FFF7DAFD4FF4005100F044F8022203922D
:101D700069462846FFF710FD4FF4805100F03AF80D
:101D80000322039269462046FFF706FD4FF4806068
:101D9000002100900191029169461548FFF7FCFC73
:101DA0004020002100900191029120466946FFF7F2
:101DB000F3FC05B030BD00001410024010000020FC
:101DC00000540040801A0600000800400004004053
:101DD000003800404402002000240140040200209A
:101DE000002C01401810024000100140000C01407E
:101DF00000080140009101220192002102917047E8
:101E0000704700000000000000000000000000001B
:101E100000000000000000000000000000000000C2
:101E2000000000000901020002D4294881547047D3
:101E3000284B02F00F021A4402F8041C7047264B8C
:101E400019684FF6FF020002114000F4E0600843F9
:101E5000224908431860704738B51F4B1C68C4F30B
:101E60000223C3F10704052C28BF04241D1D072DE0
:101E700034BF0023DB1E012505FA04F4641E214053
:101E8000994005FA03F35B1E1A401143BDE8344044
:101E9000C8E7010007D4012200F01F01104B8A405F
:101EA000400943F82020704710B5401EB0F1807FF4
:101EB00001D3012010BD0B4C60600F214FF0FF30AB
:101EC000FFF7B0FF0021A16007202060002010BDB7
:101ED00000E400E018ED00E00CED00E00000FA0581
:101EE00000E100E010E000E0002200F0A1BD0000F1
:101EF00001484068704700BF0000002038B50D4D14
:101F00000D4B2A7804464FF47A711868B1FBF2F24F
:101F1000B0FBF2F0FFF7C8FF50B9102C08D2002236
:101F200021464FF0FF30FFF797FFAC60002032BD35
:101F3000012032BD000000200C00002080B50748C1
:101F4000016841F0100101600320FFF778FF0020D5
:101F5000FFF7D4FFFEF79EFE002002BD00200240E6
:101F600038B5040001D1012032BD00F02DF818B9B8
:101F700000F026F8FEF773FF0BE038B5040001D13E
:101F8000012032BD00F020F818B900F019F8FEF772
:101F9000DFFF02206870211D206800F0F1F90120A8
:101FA0006870002032BD38B5040001D1012032BD77
:101FB00000F00AF818B900F003F8FEF7B8FFE8E7F8
:101FC000002129702046704704F13C05687870476D
:101FD00070B504000E4601D1012070BDFFF7F4FF7B
:101FE00018B9FFF7EDFF00F03CFD02206870211DDD
:101FF000206800F0C5F92068016821F0080101603F
:10200000206802681643066001206870002070BDD9
:10201000F8B504000E4601D10120F2BDFFF7D4FF50
:1020200018B9FFF7CDFFFEF73EFF02206870216868
:10203000DFF8E8028A6802408A60211D206800F00B
:102040009FF92268DFF8D81293689069176A0140F7
:10205000B0680843B16940EA0120DFF8C8120140C6
:10206000F0680843F16940EA0121306941EA001053
:10207000316A40EA013C7068716927F02207074322
:102080003068034347EA011793602168C1F818C01C
:1020900001212068076269700020F2BD10B5044676
:1020A000206801698A0715D5C1688A0712D56FF0C3
:1020B0000201016101222277806910F0030F20469E
:1020C00002D000F0CFFC03E000F0CDFC00F087F878
:1020D00000202077206801694A0715D5C1684A07A2
:1020E00012D56FF00401016102222277806910F499
:1020F000407F204602D000F0B5FC03E000F0B3FCC6
:1021000000F06DF800202077206801690A0715D5D6
:10211000C1680A0712D56FF0080101610422227715
:10212000C06910F0030F204602D000F09BFC03E0D2
:1021300000F099FC00F053F8002020772068016936
:10214000CA0615D5C168CA0612D56FF01001016123
:1021500008222277C06910F4407F204602D000F0A8
:1021600081FC03E000F07FFC00F039F800202077CC
:1021700020680169CA0708D5C168CA0705D56FF08C
:1021800001010161204600F06FFC206801690A0628
:1021900008D5C1680A0605D56FF0800101612046A7
:1021A00000F063FC206801694A0608D5C1684A0648
:1021B00005D56FF040010161204600F057FC206812
:1021C00001698A060AD5C1688A0607D56FF0200121
:1021D00001612046BDE8104000F049BC10BD20461A
:1021E00000F046BC38B500F13C042378012B01D146
:1021F000022032BD01232370022565704AB1042AF2
:102200000BD0082A0DD00C2A04BF006800F05DF93D
:102210000AE0006800F0E3F806E0006800F004F966
:1022200002E0006800F029F900F0A4B870B500F0F1
:1022300063F801D1022070BD00F06BF832B1042ABE
:1022400017D0082A28D00C2A39D04AE0306829460D
:1022500000F0C5F83068816941F0080100F048F8E5
:1022600021F00401816131688A69286902438A6129
:1022700037E03068294600F0D7F83068816941F4CA
:10228000006100F035F821F4806100F031F82A692E
:1022900041EA0221816124E03068294600F0EDF82E
:1022A0003068C16941F0080100F01EF821F0040116
:1022B000C1613168CA6928690243CA6111E03068A6
:1022C000294600F002F93068C16941F4006100F06C
:1022D0000BF821F4806100F007F82A6941EA022135
:1022E000C16100F010F870BDC1613068C16970470C
:1022F0008161306881697047064606F13C040D46ED
:102300002078012870470120607000212170002092
:10231000704701202070022161707047F8BFFFFFF5
:10232000FCFCFFFF0303FFFF38B500F00CF801D100
:10233000022032BD00F00DF800B110E02868C1683D
:1023400021F0400110E0054605F13C042078012809
:10235000704701202070022262702846D5E00120DB
:1023600060700021217032BDC1602868C16821F40D
:102370008041C1600120607000212170002032BDC9
:1023800070B57E4E03687E4C7E4DB04218BFB0F1F2
:10239000804F03D0A84218BFA04209D14A6823F059
:1023A00070031343B0421CBFB0F1804FA84201D06C
:1023B000A04203D1CA6823F4407313434A6923F04F
:1023C000800313430360B0428B68C3620A68826271
:1023D00002D109696C4A11600123436170BD70B577
:1023E000026A520852000262066A446885690B68F4
:1023F0008A6825F073051D4326F0020616435F4BDD
:1024000098420BD1CA684B6926F0080624F4407440
:1024100016438A691C4326F0040614434460856110
:1024200049684163066270BD70B5026A534E22F07E
:1024300010020262B042056A436884690A6824F4A3
:10244000E64444EA02248A6825F0200545EA02159C
:102450000DD1CA684E6925F0800545EA02158A69E2
:1024600023F44063164325F0400543EA86034360A6
:10247000846149688163056270BD70B5026A22F4A7
:1024800080720262056A4368C4690A688E6824F033
:1024900073041443394A25F40075904245EA062531
:1024A0000DD1CA684E6925F4006545EA02258A699E
:1024B00023F44053164325F4806543EA0613436032
:1024C000C4614968C163056270BD70B5026A2B4E74
:1024D00022F480520262B042046A4268C3690D6805
:1024E00023F4E64343EA05238D6824F4005444EAC8
:1024F000053404D14D6922F4804242EA85124260DB
:10250000C36149680164046270BD10B500688468E5
:102510004B680A6824F070041C43E40842EAC404CF
:1025200084604C68402C0BD0502C1CD0602C1FD0E9
:10253000702C21D10B698A68C96800F048F81BE04B
:102540000A68052A01D1012010BD026A036A5B08EE
:102550005B0003628369096923F0F00343EA011316
:102560008361026208E00A69896800F00FF803E0FD
:102570000A69896800F019F8002010BD002C01409C
:102580000008004000040040302C014010B5036AF0
:10259000046A64086400046223F00A03846924F076
:1025A000F00444EA021484611BE010B5036A23F0CE
:1025B000100303628369046A23F4704343EA02331D
:1025C00024F0A004836144EA0114046210BD10B534
:1025D000846824F47F442143114341EA032181604C
:1025E00010BD1943016210BD70B500F13C031A78AB
:1025F000012A01D1022070BD01221A7002245C70F0
:1026000004686568A6684A68096825F070050D4386
:10261000656026F0800600681643866001215970C7
:102620000020187070BD10B590F83C20012A01D12F
:10263000022010BD012280F83C20CC688A684B68DB
:1026400024F44074144324F480641C430A680B6926
:1026500024F40064144324F480541C434A69C96977
:1026600024F400541443026824F480440C4354645A
:10267000002380F83C30002010BD000038B5040075
:1026800001D1012032BD0020A06204F1500568781C
:1026900020B9002129702046FEF7ADFB02206870AA
:1026A00000F025F86268A168E06823680A432169A0
:1026B000024360690A43A169024301F40071E069C1
:1026C0000A43216A0243A06A0A4302431A60A169CD
:1026D0002068090C01F0040141602068C16921F4FF
:1026E0000061C161002068600121697032BD20680D
:1026F000016821F040010160704700002DE9FC41B4
:102700000646354D3078C10750D5A8690024C10070
:1027100009D4A86940F08050A8610124A86900F09C
:102720008050009000982D4F3868C10519D4386842
:1027300040F480703860FFF7DBFB80463868C105E5
:102740000FD4FFF7D5FBA0EB08006528F6D30320D4
:102750003FE0FFF7CDFBC01B41F28931884217D320
:10276000F5E7E86910F440701EBF716801F440712C
:10277000884210D01A49E86901220A60002320F437
:1027800040700B60E861C00705D5FFF7B1FB074655
:10279000E8698107DDD5EA69706822F44072024376
:1027A000EA611CB1A86920F08050A86130788107E7
:1027B00005D52A68B06822F4404202432A60317885
:1027C000C80605D52968F06821F480010143296015
:1027D0000020BDE8F68100000410024000700040B7
:1027E00040044242F8B5044600270026002C71D070
:1027F00004F12405686820B9AE6028702046FEF711
:1028000068FA204600F0F2F86968CA065ED4010052
:102810005CD1696821F4885141F002016960636804
:10282000E269217B1343A268B2F5807F14BF012ABD
:102830004FF48077227D012A43EA41030FD131B959
:10284000A169491E490341F400610F4307E069682B
:1028500041F020016960A96841F00101A960216887
:102860004A6822F4694217434F602268DFF8641116
:1028700097680F401F439760A168B1F5807F18BF2C
:10288000012902D12669761E36052168CA6A22F41A
:1028900070021643CE622468DFF83C11A2680A4039
:1028A0009A4208D10023AB60696821F0020141F02F
:1028B00001016960F2BD686820F0020040F010007C
:1028C0006860A86840F00100A86003E0686840F014
:1028D000100068600120F2BDF8B50A46002100F141
:1028E000240300911C78012C01D10220F2BD0124A7
:1028F0001C701F27546815680668072C08D2641ED0
:1029000004EB8404D6F834C000F05EF8756312E07E
:102910000D2C08D2E41F04EB8404D6F830C000F07C
:1029200053F8356307E00D3C04EB8404D6F82CC063
:1029300000F04AF8F56207271668946805680A2EC1
:1029400008D30A3E06EB4606D5F80CC000F036F870
:10295000EC6006E006EB4606D5F810C000F02EF855
:102960002C611468102C18BF112C23D100681C4C4A
:10297000A0421AD11B4805682C021BD4056845F4F7
:10298000000505601068102814D1144A164D14680B
:10299000B4FBF5F50A2045430095009800281EBFBA
:1029A0000098401E0090F8D104E00121586840F0E2
:1029B00020005860002018700846F2BDB7402CEA8D
:1029C0000707B4403C437047A7402CEA0707A540DF
:1029D0003D437047FDF7E1FFFE0E1FFF0C00002096
:1029E000002401400824014040420F0038B504464D
:1029F00020688168CA0719D5816849084900816043
:102A0000FFF776FA054620688168C8070ED5FFF7FC
:102A10006FFA401B0328F6D3A06A40F01000A062B2
:102A2000E06A40F00100E062012032BD002032BDCA
:102A300000B500BF130096469446103928BFA0E8A1
:102A40000C50FAD85FEA417C28BF0CC048BF40F860
:102A5000042BC90728BF20F8022B48BF00F8012B20
:102A600000BD7047704770477047704770477047A8
:102A70007047000010B50E4A0E49106840F0010082
:102A8000106053680C480B40536014680440146095
:102A9000116821F4802111604FF41F01506820F467
:102AA000FE00506091604FF00060044A106010BD5D
:102AB000001002400000FFF8FFFFF6FE08ED00E006
:102AC00000000000000000000102030406070809DE
:102AD0007047FEE7FEE7FEE7FEE770477047704786
:102AE00000F014B80548FEF79ABD0548FEF797BDFB
:102AF0000448FFF7D3BA0448FDF7A6BB7C010020C9
:102B0000C00100203C0100206800002002494A6802
:102B1000087882184A6070470000002030B450F8EE
:102B2000041B79B10268436802440830DC0744BFE3
:102B3000A9F10104E31852F8045B43F8045B091F90
:102B4000F9D1ECE730BC704710B50749794418312A
:102B5000064C7C44163404E00A68081D114488477A
:102B60000146A142F8D110BD080000002800000075
:102B70007BE9FFFF6402000010000020000000005D
:102B80009DFFFFFF10000000640000000000002017
:102B90000000000000F00DF8002801D0FFF7D4FF7E
:102BA000AFF300800020AFF30080FEF7D3FE00F00B
:102BB00002F80120704700F001B8000007463846CF
:102BC00000F002F8FBE7000080B5AFF30080024A96
:102BD00011001820ABBEFBE7260002000148804729
:102BE00001480047752A0008FD2B0008010000007D
:102BF00000000000100000000024F400AFF300808B
:102C0000AFF30080FFF7C6FF0000000001020304DD
:102C1000FFF7FEBFFFF7FEBFFFF7FEBFFFF7FEBFE8
:102C2000FFF7FEBFFFF7FEBFFFF7FEBFFFF7FEBFD8
:102C3000FFF7FEBFFFF7FEBFFFF7FEBFFFF7FEBFC8
:102C4000FFF7FEBFFFF7FEBFFFF7FEBFFFF7FEBFB8
:102C5000FFF7FEBFFFF7FEBFFFF7FEBFFFF7FEBFA8
:102C6000FFF7FEBFFFF7FEBFFFF7FEBFFFF7FEBF98
:102C7000FFF7FEBFFFF7FEBFFFF7FEBFFFF7FEBF88
:102C8000FFF7FEBFFFF7FEBFFFF7FEBFFFF7FEBF78
:102C9000FFF7FEBFFFF7FEBFFFF7FEBFFFF7FEBF68
:0C2CA000FFF7FEBFFFF7FEBFFFF7FEBF0F
:0400000508002BFDC7
:00000001FF
